{
  "contractName": "Display",
  "abi": [
    {
      "constant": true,
      "inputs": [],
      "name": "usercount",
      "outputs": [
        {
          "name": "",
          "type": "uint256"
        }
      ],
      "payable": false,
      "stateMutability": "view",
      "type": "function"
    },
    {
      "constant": true,
      "inputs": [
        {
          "name": "",
          "type": "uint256"
        }
      ],
      "name": "Users",
      "outputs": [
        {
          "name": "id",
          "type": "uint256"
        },
        {
          "name": "add",
          "type": "address"
        },
        {
          "name": "image",
          "type": "string"
        }
      ],
      "payable": false,
      "stateMutability": "view",
      "type": "function"
    },
    {
      "inputs": [],
      "payable": false,
      "stateMutability": "nonpayable",
      "type": "constructor"
    }
  ],
  "bytecode": "0x608060405234801561001057600080fd5b50610073735564aa6bd5d7fa2c4cd2c3a17c6b8388be522b486040805190810160405280600981526020017f696d672f312e6a706700000000000000000000000000000000000000000000008152506103ea640100000000026401000000009004565b6100d573964391a3b1eee9fab6fb880046952eafe0f732536040805190810160405280600981526020017f696d672f322e6a706700000000000000000000000000000000000000000000008152506103ea640100000000026401000000009004565b61013773838e2134d9e028503bcac05e564bce30a60f050b6040805190810160405280600981526020017f696d672f332e6a706700000000000000000000000000000000000000000000008152506103ea640100000000026401000000009004565b61019973e7e494dc234b0a8fe0d522975d7f347fac4010de6040805190810160405280600981526020017f696d672f352e6a706700000000000000000000000000000000000000000000008152506103ea640100000000026401000000009004565b6101fb73fe4a5705cae7f722ce19b1d6208952ecb23fdd906040805190810160405280600a81526020017f696d672f31302e6a7067000000000000000000000000000000000000000000008152506103ea640100000000026401000000009004565b61025d7323edc8de2d05abbdd97817079f499dfed9397e0c6040805190810160405280600a81526020017f696d672f31342e6a7067000000000000000000000000000000000000000000008152506103ea640100000000026401000000009004565b6102bf735015e1d0138db9a18fd950bc5852322884a3f2d26040805190810160405280600a81526020017f696d672f32372e6a7067000000000000000000000000000000000000000000008152506103ea640100000000026401000000009004565b610321739d9a57c976d3a4e77498c2778d2b8705507675ee6040805190810160405280600a81526020017f696d672f33332e6a7067000000000000000000000000000000000000000000008152506103ea640100000000026401000000009004565b61038373816544a61ce3c73d0fdfa70f5d2bb7147180b2816040805190810160405280600981526020017f696d672f392e6a706700000000000000000000000000000000000000000000008152506103ea640100000000026401000000009004565b6103e573e5ab292d6a2320e79e836cc3d32db4fcc2890c816040805190810160405280600a81526020017f696d672f31312e6a7067000000000000000000000000000000000000000000008152506103ea640100000000026401000000009004565b61055d565b600080815480929190600101919050555060606040519081016040528060005481526020018373ffffffffffffffffffffffffffffffffffffffff1681526020018281525060016000805481526020019081526020016000206000820151816000015560208201518160010160006101000a81548173ffffffffffffffffffffffffffffffffffffffff021916908373ffffffffffffffffffffffffffffffffffffffff16021790555060408201518160020190805190602001906104b09291906104b8565b509050505050565b828054600181600116156101000203166002900490600052602060002090601f016020900481019282601f106104f957805160ff1916838001178555610527565b82800160010185558215610527579182015b8281111561052657825182559160200191906001019061050b565b5b5090506105349190610538565b5090565b61055a91905b8082111561055657600081600090555060010161053e565b5090565b90565b6102708061056c6000396000f30060806040526004361061004c576000357c0100000000000000000000000000000000000000000000000000000000900463ffffffff1680630f322c1e146100515780631e98fd1c1461007c575b600080fd5b34801561005d57600080fd5b5061006661015c565b6040518082815260200191505060405180910390f35b34801561008857600080fd5b506100a760048036038101908080359060200190929190505050610162565b604051808481526020018373ffffffffffffffffffffffffffffffffffffffff1673ffffffffffffffffffffffffffffffffffffffff16815260200180602001828103825283818151815260200191508051906020019080838360005b8381101561011f578082015181840152602081019050610104565b50505050905090810190601f16801561014c5780820380516001836020036101000a031916815260200191505b5094505050505060405180910390f35b60005481565b60016020528060005260406000206000915090508060000154908060010160009054906101000a900473ffffffffffffffffffffffffffffffffffffffff1690806002018054600181600116156101000203166002900480601f01602080910402602001604051908101604052809291908181526020018280546001816001161561010002031660029004801561023a5780601f1061020f5761010080835404028352916020019161023a565b820191906000526020600020905b81548152906001019060200180831161021d57829003601f168201915b50505050509050835600a165627a7a7230582082cafcaedfcb47999f993388ff74dcd809174667ec98555b80d246a76f8e0d350029",
  "source": "pragma solidity ^0.4.2;\r\n\r\ncontract Display{\r\n\r\n    struct User{\r\n\r\n        uint id;\r\n        address add;\r\n        string image;\r\n    }\r\n    uint public usercount;\r\n    mapping(uint => User) public Users;\r\n\r\n    function Display() public{\r\n\r\n        addUser(0x5564AA6bD5D7Fa2C4Cd2C3A17C6B8388Be522B48,\"img/1.jpg\");\r\n        addUser(0x964391a3B1EEe9fAB6FB880046952eaFE0F73253,\"img/2.jpg\");\r\n        addUser(0x838E2134d9e028503bCac05e564bce30A60F050B,\"img/3.jpg\");\r\n        addUser(0xE7E494Dc234b0a8FE0d522975d7F347fac4010dE,\"img/5.jpg\");\r\n        addUser(0xFE4a5705CaE7f722ce19b1D6208952eCB23fDd90,\"img/10.jpg\");\r\n        addUser(0x23edc8DE2d05ABBDD97817079F499dFED9397E0c,\"img/14.jpg\");\r\n        addUser(0x5015E1D0138dB9A18fD950BC5852322884A3F2D2,\"img/27.jpg\");\r\n        addUser(0x9D9a57C976d3a4E77498C2778D2B8705507675eE,\"img/33.jpg\");\r\n        addUser(0x816544a61CE3C73D0fDFa70f5d2bb7147180b281,\"img/9.jpg\");\r\n        addUser(0xe5aB292d6A2320E79E836CC3d32dB4Fcc2890c81,\"img/11.jpg\");\r\n\r\n\r\n    }\r\n\r\n    function addUser (address _Address,string _image) private {\r\n        \r\n        usercount++;\r\n        Users[usercount] = User(usercount, _Address,_image);\r\n    }\r\n \r\n\r\n\r\n}",
  "sourcePath": "C:\\Users\\admin\\eVoting3\\Eth-Exp01\\contracts\\Display.sol",
  "compiler": {
    "name": "solc",
    "version": "0.4.26+commit.4563c3fc.Emscripten.clang"
  },
  "schemaVersion": "3.0.23",
  "updatedAt": "2020-10-04T07:11:26.314Z",
  "networkType": "ethereum",
  "devdoc": {
    "methods": {}
  },
  "userdoc": {
    "methods": {}
  }
}