{
  "contractName": "Election",
  "abi": [
    {
      "constant": true,
      "inputs": [],
      "name": "voterc",
      "outputs": [
        {
          "name": "",
          "type": "uint256"
        }
      ],
      "payable": false,
      "stateMutability": "view",
      "type": "function"
    },
    {
      "constant": true,
      "inputs": [],
      "name": "candidatesCount",
      "outputs": [
        {
          "name": "",
          "type": "uint256"
        }
      ],
      "payable": false,
      "stateMutability": "view",
      "type": "function"
    },
    {
      "constant": true,
      "inputs": [
        {
          "name": "",
          "type": "uint256"
        }
      ],
      "name": "candidates",
      "outputs": [
        {
          "name": "id",
          "type": "uint256"
        },
        {
          "name": "name",
          "type": "string"
        },
        {
          "name": "pic",
          "type": "string"
        },
        {
          "name": "voteCount",
          "type": "uint256"
        }
      ],
      "payable": false,
      "stateMutability": "view",
      "type": "function"
    },
    {
      "constant": true,
      "inputs": [
        {
          "name": "",
          "type": "address"
        }
      ],
      "name": "voters",
      "outputs": [
        {
          "name": "",
          "type": "bool"
        }
      ],
      "payable": false,
      "stateMutability": "view",
      "type": "function"
    },
    {
      "inputs": [],
      "payable": false,
      "stateMutability": "nonpayable",
      "type": "constructor"
    },
    {
      "anonymous": false,
      "inputs": [
        {
          "indexed": true,
          "name": "_candidateId",
          "type": "uint256"
        }
      ],
      "name": "votedEvent",
      "type": "event"
    },
    {
      "constant": false,
      "inputs": [
        {
          "name": "_candidateId",
          "type": "uint256"
        }
      ],
      "name": "vote",
      "outputs": [],
      "payable": false,
      "stateMutability": "nonpayable",
      "type": "function"
    }
  ],
  "bytecode": "0x6080604052600060035534801561001557600080fd5b506100996040805190810160405280600b81526020017f43616e64696461746520310000000000000000000000000000000000000000008152506040805190810160405280600a81526020017f696d672f646a2e706e67000000000000000000000000000000000000000000008152506101a4640100000000026401000000009004565b61011c6040805190810160405280600b81526020017f43616e64696461746520320000000000000000000000000000000000000000008152506040805190810160405280601a81526020017f696d672f486f757365686f6c642d46616e2d69636f6e2e706e670000000000008152506101a4640100000000026401000000009004565b61019f6040805190810160405280600b81526020017f43616e64696461746520330000000000000000000000000000000000000000008152506040805190810160405280600b81526020017f696d672f66616e2e706e670000000000000000000000000000000000000000008152506101a4640100000000026401000000009004565b6102ea565b60026000815480929190600101919050555060806040519081016040528060025481526020018381526020018281526020016000815250600160006002548152602001908152602001600020600082015181600001556020820151816001019080519060200190610216929190610245565b506040820151816002019080519060200190610233929190610245565b50606082015181600301559050505050565b828054600181600116156101000203166002900490600052602060002090601f016020900481019282601f1061028657805160ff19168380011785556102b4565b828001600101855582156102b4579182015b828111156102b3578251825591602001919060010190610298565b5b5090506102c191906102c5565b5090565b6102e791905b808211156102e35760008160009055506001016102cb565b5090565b90565b61055c806102f96000396000f30060806040526004361061006d576000357c0100000000000000000000000000000000000000000000000000000000900463ffffffff1680630121b93f146100725780630cec23e51461009f5780632d35a8a2146100ca5780633477ee2e146100f5578063a3ec138d14610215575b600080fd5b34801561007e57600080fd5b5061009d60048036038101908080359060200190929190505050610270565b005b3480156100ab57600080fd5b506100b46103a4565b6040518082815260200191505060405180910390f35b3480156100d657600080fd5b506100df6103aa565b6040518082815260200191505060405180910390f35b34801561010157600080fd5b50610120600480360381019080803590602001909291905050506103b0565b604051808581526020018060200180602001848152602001838103835286818151815260200191508051906020019080838360005b83811015610170578082015181840152602081019050610155565b50505050905090810190601f16801561019d5780820380516001836020036101000a031916815260200191505b50838103825285818151815260200191508051906020019080838360005b838110156101d65780820151818401526020810190506101bb565b50505050905090810190601f1680156102035780820380516001836020036101000a031916815260200191505b50965050505050505060405180910390f35b34801561022157600080fd5b50610256600480360381019080803573ffffffffffffffffffffffffffffffffffffffff169060200190929190505050610510565b604051808215151515815260200191505060405180910390f35b6000803373ffffffffffffffffffffffffffffffffffffffff1673ffffffffffffffffffffffffffffffffffffffff16815260200190815260200160002060009054906101000a900460ff161515156102c857600080fd5b6000811180156102da57506002548111155b15156102e557600080fd5b60016000803373ffffffffffffffffffffffffffffffffffffffff1673ffffffffffffffffffffffffffffffffffffffff16815260200190815260200160002060006101000a81548160ff0219169083151502179055506001600082815260200190815260200160002060030160008154809291906001019190505550600360008154809291906001019190505550807ffff3c900d938d21d0990d786e819f29b8d05c1ef587b462b939609625b684b1660405160405180910390a250565b60035481565b60025481565b6001602052806000526040600020600091509050806000015490806001018054600181600116156101000203166002900480601f0160208091040260200160405190810160405280929190818152602001828054600181600116156101000203166002900480156104625780601f1061043757610100808354040283529160200191610462565b820191906000526020600020905b81548152906001019060200180831161044557829003601f168201915b505050505090806002018054600181600116156101000203166002900480601f0160208091040260200160405190810160405280929190818152602001828054600181600116156101000203166002900480156105005780601f106104d557610100808354040283529160200191610500565b820191906000526020600020905b8154815290600101906020018083116104e357829003601f168201915b5050505050908060030154905084565b60006020528060005260406000206000915054906101000a900460ff16815600a165627a7a7230582061841880ac0e191a2d4ff1deda556ff9f80928c3eb0f9c148a10e381d22ea07a0029",
  "source": "pragma solidity ^0.4.2;\r\ncontract Election {\r\n    // Model a Candidate\r\n    struct Candidate {\r\n        uint id;\r\n        string name;\r\n        string pic;\r\n        uint voteCount;\r\n    }\r\n\r\n    \r\n       \r\n    // Store accounts that have voted\r\n    mapping(address => bool) public voters;\r\n\r\n    // Store Candidates\r\n    // Fetch Candidate\r\n    // Read/write candidates\r\n    mapping(uint => Candidate) public candidates;\r\n\r\n    // Store Candidates Count\r\n    uint public candidatesCount;\r\n    uint public voterc=0;\r\n\r\n    // voted event\r\n    event votedEvent (\r\n        uint indexed _candidateId\r\n    );\r\n\r\n    function Election () public {\r\n        addCandidate(\"Candidate 1\",\"img/dj.png\");\r\n        addCandidate(\"Candidate 2\",\"img/Household-Fan-icon.png\");\r\n        addCandidate(\"Candidate 3\",\"img/fan.png\");\r\n       \r\n    }\r\n\r\n    function addCandidate (string _name,string _image) private {\r\n        candidatesCount ++;\r\n        candidates[candidatesCount] = Candidate(candidatesCount, _name,_image, 0);\r\n    }\r\n\r\n    function vote (uint _candidateId) public {\r\n        // require that they haven't voted before\r\n        require(!voters[msg.sender]);\r\n\r\n        // require a valid candidate\r\n        require(_candidateId > 0 && _candidateId <= candidatesCount);\r\n        \r\n\r\n        // record that voter has voted\r\n        voters[msg.sender] = true;\r\n       \r\n        // update candidate vote Countsss\r\n        candidates[_candidateId].voteCount ++;\r\n             voterc++;\r\n        // trigger voted event\r\n        emit votedEvent(_candidateId);\r\n    }\r\n}\r\n",
  "sourcePath": "C:\\Users\\admin\\eVoting1\\Eth-Exp01\\contracts\\election.sol",
  "compiler": {
    "name": "solc",
    "version": "0.4.26+commit.4563c3fc.Emscripten.clang"
  },
  "schemaVersion": "3.0.23",
  "updatedAt": "2020-08-27T07:54:00.286Z",
  "networkType": "ethereum",
  "devdoc": {
    "methods": {}
  },
  "userdoc": {
    "methods": {}
  }
}